:100000000C94A53D0C94D63D0C94D63D0C94D63D55
:100010000C94D63D0D94B83F0C94D63D0D94948A23
:100020000D94B18A0C94D63D0C94D63D0C94D63DDB
:100030000C94DA4A0C94D63D0D949B120C944B818F
:100040000C94D63D0D94FD1E0C94D63D0C94D63DDB
:100050000C94D63D0C94D63D0C94D63D0D94DA8983
:100060000C94D63D0C9471510C94D63D0C94D63D15
:100070000C94D63D0D9458900C94D63D0C94D63DDE
:100080000C94D63D0C94D63D0C94D63D0C94D63DA4
:100090000C942D510C94D63D0C94D63D0C94D63D29
:1000A0000C94D63D0C94D63D0C94BB610C94D63D7B
:1000B0000C94D63D0C949D610C94D63D0D94ED1797
:1000C0000C94D63D0C94D63D0C94D63D0C945D61B9
:1000D0000C94D63D0C94D63D0C94D63D0C94D63D54
:1000E0000C94D63D084AD73B3BCE016E84BCBFFD85
:1000F000C12F3D6C74319ABD56833DDA3D00C77FF8
:1001000011BED9E4BB4C3E916BAAAABE0000008090
:100110003F05A84CCDB2D44EB93836A9020C50B91F
:10012000918688083CA6AAAA2ABE000000803F0744
:10013000634236B79BD8A71A39685618AEBAAB5582
:100140008C1D3CB7CC5763BD6DEDFD753EF6177247
:1001500031BF000000803F08000000BE9224491219
:100160003EABAAAA2ABECDCCCC4C3E00000080BE3D
:10017000ABAAAAAA3E00000000BF000000803F001A
:1001800000000000084178D3BB4387D1133D190E0E
:100190003CC3BD4282AD2B3E68EC8276BED98FE176
:1001A000A93E4C80EFFFBE01C4FF7F3F000000006E
:1001B00000000C94A2D70C9403ED0D94A4740D943C
:1001C000A12A0C946E3E0D9456070D94BB820D949B
:1001D000963E0C946FCC0C9473FA0C94ACBC0C94BB
:1001E000A6DC0C94EDF30C942AFC0C94A8DA0C9485
:1001F0009ABC0C9467C20D940A2B0D94B77A0C9498
:1002000089C70C94CBD30D942C8A0C9479FA0D9455
:100210004B8A0C9468F20D94972A0D94843E0C94AA
:10022000D6DC0C94C4C20D947F2B0C948DE50C94F9
:1002300033BD0D946E8A0C9463DA0C94EBE00D944C
:10024000A1740C949AF10C94B6CB0D949A2A0C9448
:100250001BF40C94EEEC0C94BAC60C94B0F10C9414
:1002600044E60C9493C30C9455FD0D94C07A0C9401
:100270006DFF0C940FE70C9463BC0C9430FB0C9452
:100280002BE00C94D7CD0C94E3FB0D94138A0D94C2
:10029000412B0C94D8C20C941FC90D941E060D94CA
:1002A000A42A0C942EBD0C944BCD0C94D7EC0C943A
:1002B000E3CD0C948EF10C940BBE0D94B37A0C9498
:1002C00041D70C94E6CA0C94A3BC0C94C1D30C94F3
:1002D0007EBC0C948AF00C94FDEC0C9428C90D940F
:1002E00056020C949ED30D94722A0C9427C20C943F
:1002F0000CC30C94E8FA0C94BAC20C94863E0C948D
:100300006DBC0D94B87C0C948AD30C9469DC0C946D
:10031000E2EB0D940F2B0C9413F10C94C9C60C94C2
:100320007AD00D9467080D94DD010C94A8BC0C9450
:10033000EECD0C9461C70C940BC70D940F020C9476
:1003400071BC0C9496BC0C94F5C20C9425ED0D94E4
:10035000072B0C94BBBC0C943FCD0C9415FE0C9455
:100360009AC20D9492A70C9478BC0C9475BC0C9412
:1003700096F10C94FAC50C944CC20C94D7C60C940C
:10038000CBCD0C9490BC0C94A4F90C9488C50C941F
:1003900084E20C94CDEC0D94611A0D9426740C94A7
:1003A000A9F90D94291B0D94A72B0D94C2080C9448
:1003B00069BC0C94EADA0D94F53C0C94A3E50C941A
:1003C00067FB0C948CBC0D9411080D94A9080D9436
:1003D0009F2B0D94A97C0C944EE90C9445CD0C9464
:1003E00007ED0C94D5D30D94FA010C9456FA0C94A5
:1003F000FDCD0D94D52A0C94FDC10C9452C50C94DE
:100400008CC40D9418090C9442CD0C9457E00D94B3
:100410009A080C9488F10C949EBC0D9424080D94B9
:100420003F740C94AEC20C94EAC20D94FE010D947C
:10043000947A0D942C000D943E8E0C94A4BC0D94D3
:10044000F8BC0D945F2B0D945A2A0C94B6BC0D94F5
:100450004E7A0C9411BE0C94CAEE0D949D060D9428
:10046000C57A0C94BFC60C9494D30C941BC20C9404
:10047000B5C60C9478D30C9448CD0C94B0C60C94AB
:100480005FE90C9423F00C9466D30C9465CC0C9427
:10049000C4C60C949AC30C94CADC0C94ACC90C94DA
:1004A00012C20D941E8A0C948EF00C9489EC0C945C
:1004B000C5CD0C940BC20C94D1CD0C9426EC0C94AD
:1004C00012C50D94F9890C9472C20C9452D30D94F8
:1004D000442B0C94DFD30D94808A0C945CD30D9440
:1004E000572B0C94B5DC0C94CEC20D948D3E0C941D
:1004F000FFCD0D946F2B0C94CDDC0C940ECD0C9491
:1005000097FD0C944DD30D94428A0C9419C20C940F
:10051000FECC0C945BC20C94A4FF0C9462FA0C9475
:10052000B7D30C94C4EE0D94872B0C948EFB0C94D3
:1005300088BC0D94772B0C9417C90D940F0F0C9455
:1005400045D30D94972B0C941FC30C944BED0C9436
:10055000C9510D949E740C94D3C60C9480D30D9401
:100560003E2B0C9470D30C94B8DC0C9491C80C9472
:10057000CEC60C9492F10C9457CD0C944EDC0C9496
:1005800093EC0C949ACC0C94AFDC0C9493D80C9410
:1005900098CB0C9457DC0C9404C20C9445FF0C943B
:1005A00062F30C9450D80C9486C20C9445E00D94E0
:1005B000672B0D94B07A0C94C1DC0D9481740C946B
:1005C0004ECD0D94472B0D944F2B0C94ADD30C9422
:1005D0003AC20D948F2B0C94AAFA0C943BED0D9417
:1005E0001F890C94B2DC0C9463EC0C9482BC6E6199
:1005F0006E00696E660000407A10F35A00A0724ED9
:1006000018090010A5D4E80000E87648170000E4B7
:100610000B54020000CA9A3B000000E1F5050000FF
:1006200080969800000040420F000000A086010064
:100630000000102700000000E80300000000640034
:10064000000000000A00000000000100000000009F
:100650002C76D888DC674F0823DFC1DFAE59E1B1C3
:10066000B796E5E3E453C63AE651997696E8E6C2D2
:100670008426EB898C9B62ED407C6FFCEFBC9C9FD9
:1006800040F2BAA56FA5F490055A2AF75C936B6CFB
:10069000F9676DC11BFCE0E40D47FEF520E6B500EF
:1006A000D0ED902E0300943577050080841E08005D
:1006B00000204E0A000000C80C333333330F986E0D
:1006C00012831141EF8D2114893BE65516CFFEE6CA
:1006D000DB18D1844B381BF77C1D901DA4BBE42490
:1006E000203284725E228100C9F124ECA1E53D270D
:1006F00058595A2063616C6962726174696F6E2027
:10070000616C6C2072696768742E20536B6577206A
:1007100077696C6C20626520636F727265637465C3
:1007200064206175746F6D61746963616C6C792E9E
:100730000058595A2063616C6962726174696F6E06
:1007400020616C6C2072696768742E20582F5920C4
:10075000617865732061726520736C696768746C79
:100760007920736B657765642E20476F6F64206A0C
:100770006F62210058595A2063616C69627261741A
:10078000696F6E206F6B2E20582F5920617865732A
:10079000206172652070657270656E646963756C46
:1007A00061722E20436F6E67726174756C6174693B
:1007B0006F6E7321004372617368206465746563B2
:1007C0007465642E00536F6D652070726F626C6586
:1007D0006D20656E636F756E74657265642C205A4A
:1007E0002D6C6576656C696E6720656E666F7263E9
:1007F0006564202E2E2E004D65736820626564208E
:100800006C6576656C696E67206661696C65642EDF
:1008100020506C656173652072756E205A2063618B
:100820006C6962726174696F6E2E0058595A206348
:10083000616C6962726174696F6E206661696C6572
:10084000642E2052696768742066726F6E7420632C
:10085000616C6962726174696F6E20706F696E7429
:10086000206E6F7420726561636861626C652E0032
:1008700058595A2063616C6962726174696F6E20A5
:100880006661696C65642E2046726F6E74206361C8
:100890006C6962726174696F6E20706F696E7473D7
:1008A000206E6F7420726561636861626C652E00F2
:1008B00058595A2063616C6962726174696F6E2065
:1008C0006661696C65642E20506C65617365206398
:1008D0006F6E73756C7420746865206D616E7561E0
:1008E0006C2E0058595A2063616C69627261746998
:1008F0006F6E20636F6D70726F6D697365642E200B
:1009000052696768742066726F6E742063616C69E7
:1009100062726174696F6E20706F696E74206E6FA1
:100920007420726561636861626C652E0058595A63
:100930002063616C6962726174696F6E20636F6DB0
:1009400070726F6D697365642E2046726F6E7420CD
:1009500063616C6962726174696F6E20706F696E39
:100960007473206E6F7420726561636861626C6578
:100970002E0058595A2063616C6962726174696F04
:100980006E206661696C65642E2042656420636137
:100990006C6962726174696F6E20706F696E742029
:1009A000776173206E6F7420666F756E642E0050D1
:1009B0006C6163652061207368656574206F6620D3
:1009C000706170657220756E646572207468652050
:1009D0006E6F7A7A6C6520647572696E67207468D0
:1009E000652063616C6962726174696F6E206F6605
:1009F000206669727374203420706F696E74732E70
:100A000020496620746865206E6F7A7A6C65206371
:100A100061746368657320746865207061706572C5
:100A20002C20706F776572206F6666207468652071
:100A30007072696E74657220696D6D656469617448
:100A4000656C792E00536561726368696E67206218
:100A500065642063616C6962726174696F6E207095
:100A60006F696E7400506C6561736520636C6561BD
:100A70006E20746865206E6F7A7A6C6520666F727E
:100A80002063616C6962726174696F6E2E20436CC1
:100A900069636B207768656E20646F6E652E004811
:100AA000656174696E672064697361626C65642056
:100AB0006279207361666574792074696D65722E40
:100AC0000053544F505045442E0050415553454417
:100AD00020544845524D414C204552524F520047F8
:100AE0002D636F646520736C6963656420666F7243
:100AF000206120646966666572656E74206C657637
:100B0000656C2E20506C656173652072652D736C69
:100B100069636520746865206D6F64656C2061672A
:100B200061696E2E205072696E742063616E636518
:100B30006C6C65642E00472D636F646520736C696F
:100B400063656420666F7220612064696666657201
:100B5000656E74206C6576656C2E20436F6E7469CB
:100B60006E75653F00472D636F646520736C696324
:100B7000656420666F722061206E657765722066FD
:100B800069726D776172652E20506C6561736520A6
:100B900075706461746520746865206669726D772C
:100BA0006172652E205072696E742063616E636598
:100BB0006C6C65642E00472D636F646520736C69EF
:100BC00063656420666F722061206E6577657220B0
:100BD0006669726D776172652E20436F6E74696EFF
:100BE00075653F00472D636F646520736C696365AD
:100BF0006420666F72206120646966666572656E46
:100C000074207072696E74657220747970652E201C
:100C1000506C656173652072652D736C6963652026
:100C2000746865206D6F64656C20616761696E2E04
:100C3000205072696E742063616E63656C6C6564CC
:100C40002E00472D636F646520736C6963656420B3
:100C5000666F72206120646966666572656E7420D5
:100C60007072696E74657220747970652E20436F9E
:100C70006E74696E75653F00507265737320746899
:100C800065206B6E6F6220746F207072656865619D
:100C900074206E6F7A7A6C6520616E6420636F6E6B
:100CA00074696E75652E00506C6561736520707295
:100CB00065737320746865206B6E6F6220746F209B
:100CC000756E6C6F61642066696C616D656E740031
:100CD000616E6420707265737320746865206B6E3A
:100CE0006F6200496E736572742066696C616D6530
:100CF0006E7400436F6C6F72206E6F7420636F723E
:100D0000726563740046696C616D656E74206E6F08
:100D100074206C6F61646564004368616E6765642C
:100D200020636F72726563746C79004C6F616469E3
:100D30006E6720636F6C6F72004368616E67652039
:100D4000737563636573732100506C65617365200F
:100D50006F70656E2069646C657220616E642072CC
:100D6000656D6F76652066696C616D656E74206D6A
:100D7000616E75616C6C792E005761732066696CC9
:100D8000616D656E7420756E6C6F61642073756340
:100D90006365737366756C3F00506C6561736520A5
:100DA000757067726164652E004E657720666972A2
:100DB0006D776172652076657273696F6E206176FA
:100DC00061696C61626C653A0057616974696E674C
:100DD00020666F722050494E44412070726F6265E8
:100DE00020636F6F6C696E6700506C65617365207E
:100DF00077616974004E6F206D6F76652E005761C4
:100E0000697420666F7220757365722E2E2E0050E5
:100E10006C656173652072656D6F766520737465AE
:100E2000656C2073686565742066726F6D206865F7
:100E300061746265642E00537461626C6520616D3B
:100E40006269656E742074656D7065726174757227
:100E5000652032312D323643206973206E6565641A
:100E600065642061207269676964207374616E64CF
:100E70002069732072657175697265642E00506C0B
:100E8000656173652072756E2058595A2063616CD4
:100E90006962726174696F6E2066697273742E0084
:100EA0005553415254322072782046756C6C212182
:100EB000210053657474696E67732053746F726593
:100EC0006400544D3A2073746F7265642063616CE2
:100ED0006962726174696F6E20696E76616C6964B3
:100EE0002C20726573657474696E670053746F7239
:100EF00065642073657474696E67732072657472BB
:100F000069657665640048617264636F6465642036
:100F100044656661756C742053657474696E67739B
:100F2000204C6F6164656400563200000000C842C6
:100F30000000C8420000C84300008C430000484342
:100F400000004843000040410000F042E803000078
:100F5000E8030000C80000008813000000409C4423
:100F600000409C440000000000000000204E0000F3
:100F70000000204100002041CDCCCC3E000090403C
:100F8000000000000000000000000000CDCCCC3EBE
:100F90003D0A8141FF08433EB099AB438F42FC427A
:100FA000E65A343F4C62B04500000000004040006B
:100FB000003442000000000000000000000041007A
:100FC0000000E03F0000C8420000C842000040416D
:100FD0000000F042C0030000C0030000C800000091
:100FE000881300001010102000409C440000803F37
:100FF0000000003F1914000000CDCCCC3D0AD723DF
:101000003C17B7D13877CC2B329595E6241FB14FDA
:101010000A000020410000C84200401C4620BCBE1F
:101020004CCA1B0E5AAEC59D744E414E494E466287
:101030007573793A2070617573656420666F7220EC
:10104000696E70757400627573793A20706175739A
:10105000656420666F7220757365720062757379BE
:101060003A2070726F63657373696E670000006188
:101070004300004D4300004343000020C1000080B6
:10108000C09A99193E000020C1000080C09A9919A9
:101090003E0000A0400000A0400000004025336456
:1010A00020737465703D253264206D73636E743DEA
:1010B0002534640A0000006B43000051439AD94272
:1010C00043FFFFFF20413A0020503A002042403ABF
:1010D0000020403A00202F002054303A00202F00FA
:1010E00020423A00202F00543A002553457863658A
:1010F000737369766520626564206C6576656C69DA
:101100006E6720636F7272656374696F6E3A202533
:1011100069206D6963726F6E730A00426564206CAA
:101120006576656C696E67206661696C65642E2002
:10113000546F6F206D7563682076617269617469A0
:101140006F6E2066726F6D20656570726F6D206DB9
:1011500065736800426564206C6576656C696E67CE
:10116000206661696C65642E2053656E736F722012
:1011700074726967676572656420746F6F20736F3E
:101180006F6E002020004D6561737572656420707C
:101190006F696E74733A005A2073656172636820D8
:1011A0006865696768743A20352E3066004E756D43
:1011B00020582C593A20372C37004D65736820622F
:1011C0006564206C6576656C696E67206E6F74204F
:1011D0006163746976652E00000043616C63756C11
:1011E000617465206F666673657420616E64207338
:1011F0006B65772072657475726E696E67207265B3
:1012000073756C743A000000292C206572726F723D
:101210003A20002C2000293B207461726765743AE3
:101220002028002C2000293B206D656173757265B4
:10123000642D636F727265637465643A2028002CB4
:1012400020006D656173757265643A202800706FC7
:10125000696E74202300446966666572656E636515
:1012600020616674657220636F7272656374696F62
:101270006E3A2000002C200063656E7465722C208D
:1012800061646A75737465643A2000002C2000590B
:1012900020766563746F722C2061646A757374655F
:1012A000643A2000002C20005820766563746F7229
:1012B0002C2061646A75737465643A200000636E63
:1012C00074725B315D3A0000636E74725B305D3A3C
:1012D0000046696E616C20636E74722076616C7575
:1012E00065733A0000000077793A0000636E74720B
:1012F0005B315D3A00005765696768745F793A0051
:101300000077783A0000636E74725B305D3A0000DB
:101310005765696768745F783A000056657279208E
:101320006C6974746C6520736B6577206465746593
:10133000637465642E204F7274686F676F6E616CA2
:10134000697A696E672074686520617865732E001C
:10135000004D61782E206572726F72206575636C26
:10136000696469616E3A004D61782E206572726F12
:101370007220593A004D61782E206572726F72208A
:10138000583A004D61782E206572726F72733A0080
:1013900000002C206572726F7220593A20002C20B8
:1013A0006572726F7220583A20006572726F723ADD
:1013B000200029002C2000293B207461726765748D
:1013C0003A2028002C2000293B20636F727265634D
:1013D0007465643A2028002C20006D656173757275
:1013E00065643A202800002C206572726F72203EDE
:1013F000206D61782E206572726F72206575636C46
:10140000696469616E00506F696E74206E6F74203C
:101410006F6E20666972737420726F77003A007085
:101420006F696E742023004572726F72206166745A
:10143000657220636F7272656374696F6E3A200023
:10144000002C200063656E746572206E65772C2019
:10145000696E7665727465643A2000002C2000592C
:1014600020766563746F72206E65772C20696E76C6
:1014700065727465643A2000002C2000582076655F
:1014800063746F72206E65772C20696E7665727456
:1014900065643A2000002C2000636F7272656374EB
:1014A000696F6E20616E676C65733A2000002C20B6
:1014B00000636F7272656374656420616E676C654A
:1014C000733A2000002C2000636F727265637465AC
:1014D0006420782F793A2000002C20002C20002C4A
:1014E00020003B20636F7272656374696F6E2076B3
:1014F0006563746F723A2000697465726174696F14
:101500006E3A200000292C206572726F723A20001A
:101510002C2000293B207461726765743A202800F2
:101520002C2000206D656173757265643A20280077
:10153000706F696E74202300002C200063656E7448
:1015400065722C20696E697469616C3A2000002C08
:1015500020005920766563746F722C20696E69745F
:1015600069616C3A2000002C200058207665637475
:101570006F722C20696E697469616C3A2000636136
:101580006C63756C617465206D616368696E65205C
:10159000736B657720616E64206F66667365742077
:1015A0004C53004D6561737572652063656E74659B
:1015B0007220200078797A63616C5F6D6561737564
:1015C00072655F656E7465720A0078797A63616C22
:1015D0005F73706972616C382063783D25642063A5
:1015E000793D2564207A303D256420647A3D256468
:1015F000207261646975733D25642061643D2564D2
:101600000A0078797A63616C5F7365617263685A06
:10161000206E6F207369676E616C0A20783D256CBF
:101620006420793D256C64207A3D256C640A002095
:101630004F4E2D5349474E414C20617420783D2533
:101640006420793D2564207A3D25642061643D2530
:10165000640A0078797A63616C5F736561726368AC
:101660005A20783D256C6420793D256C64207A3DB4
:10167000256C640A002530327800205B2566202521
:10168000665D206D6D207061747465726E20636597
:101690006E7465720A00205B25662025665D5B25F9
:1016A000665D206D6D20646976657267656E636541
:1016B0000A000000F000F801FC03FE07FE07FE0729
:1016C000FE07FC03F801F000000000000000F0003D
:1016D000F801FC03FC03FC03FC03F801F00000002C
:1016E000000078797A63616C5F6D6561737572650E
:1016F0005F6C656176650A00536176696E6720628A
:1017000065642063616C6962726174696F6E2076D2
:101710006563746F727320746F20454550524F4D4E
:101720000050657270656E646963756C617269748E
:1017300079005A65726F20706F696E7420636F72E2
:1017400072656374696F6E3A005920766563746FD1
:1017500072206C656E6774683A0058207665637411
:101760006F72206C656E6774683A00203C200057E9
:1017700041524E494E473A2046726F6E7420706F48
:10178000696E74206E6F7420726561636861626C4B
:10179000652E205920636F6F7264696E6174653ABB
:1017A000000070745B315D3A0070745B305D3A002C
:1017B000004D656173757265643A000063757272FD
:1017C000656E745F706F736974696F6E5B5A5F41A9
:1017D0005849535D3A000063757272656E745F70AC
:1017E0006F736974696F6E5B595F415849535D3A15
:1017F000000063757272656E745F706F73697469EF
:101800006F6E5B585F415849535D3A0041742059EF
:101810002D340041742059300025642F34000063BA
:101820006E74725B315D3A0000636E74725B305DA2
:101830003A00007665635F795B315D3A000076655A
:10184000635F795B305D3A00007665635F785B319A
:101850005D3A00007665635F785B305D3A005665FF
:1018600063746F72733A2000497465726174696FB2
:101870006E3A200043616C6962726174696F6E2018
:101880006661696C65642120436865636B207468D8
:1018900065206178657320616E642072756E2061C9
:1018A0006761696E2E0020453A00205A3A0020599F
:1018B0003A0020453A00205A3A0020593A00583A56
:1018C00000202D3E200053706F6F6C4A6F696E3A96
:1018D00020002C20006673656E736F722076302EA8
:1018E0003420696E206661756C742072616E676564
:1018F00020342E362D3556202D20756E636F6E6E7A
:101900006563746564006673656E736F7220696EDB
:1019100020666F7262696464656E2072616E6765CD
:1019200020312E352D3356202D20636865636B20C2
:1019300073656E736F7200496E6163746976697462
:10194000792053687574646F776E004B494C4C4531
:10195000442E005072696E7465722068616C746503
:10196000642E206B696C6C28292063616C6C656443
:1019700021005A206C6976652061646A7573742051
:101980006F7574206F662072616E67652E205365D7
:101990007474696E6720746F20302E20436C696305
:1019A0006B20746F20636F6E74696E75652E005ABC
:1019B000206C6976652061646A757374206F757434
:1019C000206F662072616E67652E2053657474699E
:1019D0006E6720746F20300020453A3020423A0074
:1019E000543A004731205A252D2E33662046252DA6
:1019F0002E336600496E76616C6964205420636FF3
:101A000064652E004475706C696361746520542DA3
:101A1000636F64652069676E6F7265642E00416450
:101A200076616E6365204B3D004B206F7574206FAF
:101A30006620616C6C6F7765642072616E676521EA
:101A4000004D4B3353004D4B33534D4D5533005EDA
:101A5000762E012533642F2533640025336400205E
:101A60000A200A200A20002553417263205365741E
:101A700074696E67733A20503A4D6178206C656ED8
:101A8000677468286D6D2920533A4D696E206C6526
:101A90006E67746820286D6D29204E3A436F72720C
:101AA000656374696F6E7320523A4D696E20736579
:101AB000676D656E747320463A5365676D656E7425
:101AC000732F7365632E0A255320204D3231342045
:101AD00050252E32662053252E3266204E25642056
:101AE000522564204625640A00255346696C616DC1
:101AF000656E742073657474696E67733A20446907
:101B00007361626C65640A00255346696C616D659A
:101B10006E742073657474696E67733A0A25532076
:101B200020204D3230302044252E32660A002553C5
:101B3000526574726163743A20533D4C656E6774EC
:101B40006820286D6D2920463A5370656564202809
:101B50006D6D2F6D29205A3A205A4C6966742028E1
:101B60006D6D290A25532020204D32303720532512
:101B70002E32662046252E3266205A252E32660ADF
:101B800025535265636F7665723A20533D457874EC
:101B90007261206C656E67746820286D6D2920461F
:101BA0003A537065656420286D6D2F6D290A2553A1
:101BB0002020204D3230382053252E3266204625F5
:101BC0002E32660A25534175746F2D526574726109
:101BD00063743A20533D3020746F206469736162EE
:101BE0006C652C203120746F20696E746572707280
:101BF000657420657874727564652D6F6E6C7920DC
:101C00006D6F7665732061732072657472616374A1
:101C100073206F72207265636F7665726965730AEF
:101C200025532020204D323039205325640A0025C9
:101C3000535049442068656174626564207365741B
:101C400074696E67733A0A25532020204D3330346F
:101C50002050252E32662049252E32662044252E1E
:101C600032660A0025535049442073657474696EC6
:101C700067733A0A25532020204D333031205025F8
:101C80002E32662049252E32662044252E32660AE1
:101C900000255353746570732070657220756E69EA
:101CA000743A0A255320204D39322058252E3266A9
:101CB0002059252E3266205A252E32662045252EA3
:101CC00032660A25535553746570207265736F6CC4
:101CD0007574696F6E3A200A2553204D33353020D4
:101CE00058256420592564205A2564204525640A16
:101CF00025534D6178696D756D2066656564726107
:101D0000746573202D206E6F726D616C20286D6D6F
:101D10002F73293A0A255320204D3230332058257D
:101D20002E32662059252E3266205A252E32662004
:101D300045252E32660A25534D6178696D756D20F3
:101D4000666565647261746573202D2073746561C6
:101D50006C746820286D6D2F73293A0A2553202052
:101D60004D3230332058252E32662059252E3266CA
:101D7000205A252E32662045252E32660A25534DDF
:101D80006178696D756D20616363656C65726174FE
:101D9000696F6E202D206E6F726D616C20286D6DE5
:101DA0002F7332293A0A255320204D3230312058E2
:101DB000256C752059256C75205A256C7520452594
:101DC0006C750A25534D6178696D756D206163638B
:101DD000656C65726174696F6E202D207374656126
:101DE0006C746820286D6D2F7332293A0A255320B0
:101DF000204D3230312058256C752059256C7520C6
:101E00005A256C752045256C750A25534163636519
:101E10006C65726174696F6E3A20503D7072696EC4
:101E2000742C20523D726574726163742C20543D91
:101E300074726176656C0A255320204D323034204F
:101E400050252E32662052252E32662054252E3201
:101E5000660A2553416476616E636564207661721B
:101E60006961626C65733A20533D4D696E20666509
:101E700065647261746520286D6D2F73292C205460
:101E80003D4D696E2074726176656C20666565648F
:101E90007261746520286D6D2F73292C20423D6D71
:101EA000696E696D756D207365676D656E742074FC
:101EB000696D6520287573292C20583D6D617869FE
:101EC0006D756D205859206A65726B20286D6D2FD5
:101ED00073292C20205A3D6D6178696D756D205AEB
:101EE000206A65726B20286D6D2F73292C20204588
:101EF0003D6D6178696D756D2045206A65726B2056
:101F0000286D6D2F73290A255320204D323035203E
:101F100053252E32662054252E32662042256C75BC
:101F20002058252E32662059252E3266205A252E1D
:101F300032662045252E32660A2553486F6D65208E
:101F40006F666673657420286D6D293A0A255320E3
:101F5000204D3230362058252E32662059252E321B
:101F600066205A252E32660A00544D3A20525B25CF
:101F7000755D20657374696D6174652E00544D3A0A
:101F800020255320522025644300544D3A202553E8
:101F90002043206573742E00544D3A20636F6F6C9C
:101FA00020646F776E203C25644300726566696E1D
:101FB0006500696E697469616C00544D3A20636113
:101FC0006C6962722E206661696C65642100544DF3
:101FD0003A2063616C6962726174696F6E20737418
:101FE00061727400544D3A2043616C2E204E4F5460
:101FF0002049444C45004361703A25533A25630A11
:102000000050525553415F4D4D553200455854458F
:102010004E4445445F4D3230004155544F52455077
:102020004F52545F504F534954494F4E00415554FD
:102030004F5245504F52545F46414E530041555404
:102040004F5245504F52545F54454D500000446527
:102050006C6574696F6E206661696C65642C2046DE
:10206000696C653A200046696C652064656C65742E
:1020700065643A004E6F74205344207072696E7428
:10208000696E67005072696E7420736176656400D2
:102090005344207072696E742070617573656400BA
:1020A0002533642F253364004F4B004241440052D6
:1020B000414D426F2046414E20006676007468789C
:1020C0000050524E0043524153485F43414E4345F6
:1020D0004C0043524153485F5245434F56455200CE
:1020E00043524153485F5245434F564552002228C0
:1020F00032290025533A2025530A002C204D39302F
:102100003720452069676E6F726564006E6F2076B8
:10211000616C696420636F6D6D616E64007A6572D5
:102120006F72697A656400666163746F7279207298
:102130006573746F72656400696E6465782C2074D1
:10214000656D702C2075737465702C20756D005052
:10215000494E44412063616C207374617475733A15
:102160002000503A005761697420666F7220504910
:102170004E4441207461726765742074656D7065AA
:102180007261747572653A0020410020500020424F
:1021900000204C00205200205A00204E4F5420496D
:1021A0004E495449414C495A454400536865657449
:1021B0002000205A2056414C5545204F5554204F61
:1021C000462052414E474500496E76616C69642055
:1021D00073686565742049442E20416C6C6F776587
:1021E000643A20302E2E004155544F004C414E474A
:1021F0002053454C20464F524345440020643A004A
:1022000020693A0020703A0020643A0020693A00C0
:1022100020703A00256925250A00256925250A0030
:1022200022283129002F2F000020455854525544B0
:1022300045525F434F554E543A3100204D4143487B
:10224000494E455F545950453A00312E30002062C6
:1022500061736564206F6E204D61726C696E2046FB
:1022600049524D574152455F55524C3A687474700B
:10227000733A2F2F6769746875622E636F6D2F70C4
:102280007275736133642F50727573612D46697274
:102290006D776172652050524F544F434F4C5F56DB
:1022A000455253494F4E3A0030005F0038303636C1
:1022B000002B004649524D574152455F4E414D4516
:1022C0003A50727573612D4669726D77617265203F
:1022D000004D3131332053006F6B200020636D2E91
:1022E00000206D696E2000535441545320006E2F1E
:1022F00061003F546F736869626120466C61736866
:10230000416972204765744950206661696C656453
:102310000A00000125311D0C4024301C0B45232FE1
:102320001B0A17FF0406222B1A0336373538256996
:10233000206D696E2C2025692073656300496E76D7
:10234000616C6964204D20636F64653A2025730ACF
:102350000050494E44412070726F62652063616C89
:102360006962726174696F6E207374617274004E79
:102370006F2050494E444120746865726D697374D2
:102380006F7200736574006E6F7A7A6C65004D42EF
:102390004C004652004C7A004C616E6700315F374A
:1023A000356D6D5F4D4B33532D45494E53795F313C
:1023B00030612D453344763666756C6C0052657617
:1023C00000332E31342E302D3830363600466972C7
:1023D00000534E20696E76616C696400534E005262
:1023E00045534554004D4D555245530075766C6F1D
:1023F0000046414E0046414E50494E545354005001
:1024000052555341005345545F43484F505F00536A
:1024100045545F535445505F005345545F574156F0
:10242000455F00544D435F0043524153485F434171
:102430004E43454C0043524153485F5245434F562B
:1024400045520043524153485F4445544543544527
:10245000440043524153485F00256C7520627974F3
:102460006573207772697474656E20746F202553CC
:102470002061742061646472657373203078253044
:10248000346C780A00442564202D20526561642F45
:1024900057726974652025530A004D656173757222
:1024A000656420736B6577733A2025662025660A7C
:1024B0000046697474696E67206661696C656420A2
:1024C0003D3E2063616C6962726174696F6E206663
:1024D00061696C65642E0A0043616C6962726174A3
:1024E000696F6E20737563636573732E0A00416CA8
:1024F0006C20342063616C6962726174696F6E2054
:10250000706F696E747320666F756E642E0A003189
:102510002F3400312F3400312F390020436F756E76
:102520007420583A200045303A25642052504D20FE
:1025300050524E313A25642052504D204530403A99
:1025400025752050524E31403A25750A0052657368
:10255000656E640025533A20256C640A25530A00F1
:102560005072696E7465722073746F707065642048
:1025700064756520746F206572726F72732E2053BC
:1025800075706572766973696F6E207265717569B1
:102590007265642E0064756D7020636C6561726590
:1025A000640A006E6F2064756D7020617661696CDD
:1025B00061626C650A00443231202D2072656164CD
:1025C0002063726173682064756D700A006E6F20FD
:1025D00064756D7020617661696C61626C650A007A
:1025E00064756D7020636F6D706C657465642069CF
:1025F0006E20256C756D730A0058464C4153480097
:10260000454550524F4D005352414D00442D31200D
:102610002D20456E646C657373206C6F6F700A00BB
:102620004163746976652045787472756465723AA1
:10263000203000496E76616C69642065787472752B
:1026400064657200746D63323133305F7072696E2D
:10265000745F63757272656E747328290A0948097C
:10266000520A580925640925640A5909256409256F
:10267000640A5A0925640925640A4509256409255F
:10268000640A005344207072696E74696E67206238
:102690007974652000257500746D63323133305FC5
:1026A00073675F7468725B25635D3D25640A00553E
:1026B0006E6B6E6F776E20636F6D6D616E643A2026
:1026C00022004D32303020496E76616C696420659D
:1026D0007874727564657220007A5F6D61783A2053
:1026E000007A5F6D696E3A2000795F6D61783A20FB
:1026F00000795F6D696E3A2000785F6D61783A20ED
:1027000000545249474745524544006F70656E007A
:10271000785F6D696E3A20005265706F7274696EF1
:102720006720656E6473746F702073746174757361
:10273000002F2F616374696F6E3A75766C6F5F72EC
:1027400065636F766572795F7265616479002F2FBA
:10275000616374696F6E3A75766C6F5F6175746FE3
:102760005F7265636F766572795F72656164790027
:1027700053494C454E54004E4F524D414C00255349
:10278000204D4F44453A2050657263656E74206455
:102790006F6E653A20256868643B207072696E74BC
:1027A0002074696D652072656D61696E696E672060
:1027B000696E206D696E733A2025643B2043686121
:1027C0006E676520696E206D696E733A2025640A14
:1027D000005072696E74657253746174653A202595
:1027E000640A00456E642066696C65206C697374C8
:1027F00000426567696E2066696C65206C69737458
:1028000000556E6B6E6F776E20256320636F646575
:102810003A2025730A000A50494E44412074656DE0
:1028200070657261747572653A20252E3166205A82
:1028300020736869667420286D6D293A20252E332F
:1028400066000A537465703A2025642F360A000A20
:10285000537465703A2025642F362028736B697095
:10286000706564290A50494E44412074656D706555
:102870007261747572653A202564205A2073686904
:10288000667420286D6D293A300A000A5A45524F65
:102890003A20252E33660A007374617274207465C1
:1028A0006D70657261747572653A20252E31660A05
:1028B0000025642020252E326600255320583A201A
:1028C000252E356620593A20252E3566205A3A2085
:1028D000252E35660A00536C6565702E2E2E004538
:1028E000303A25642052504D0A50524E303A2564F9
:1028F0002052504D0A00473120583130205931388C
:1029000030204634303030004731205A31302046B4
:1029100031333030004D313430205330004D3130C0
:102920003420533000473120452D302E30373520AC
:102930004632313030004731204634303030004D9F
:10294000323034205331303030004731205A352076
:10295000463732303000473120452D312E35204664
:10296000323130300047393000473120583520456A
:1029700034204631303030004731205A302E32205A
:10298000463130303000473120583535204532351A
:1029900020463134303000473120592D3220463125
:1029A0003030300047312058323430204532352025
:1029B000204632323030004731205A302E33204604
:1029C00031303030004731205835352045382046E9
:1029D00032303030004731205835204532392046DA
:1029E00031383030004731205835352045323920D4
:1029F00046313037330047393220453000473238CE
:102A0000004D313039004D313930001000C902100D
:102A1000012C014001220170011801B0010E01F0EA
:102A20000104015002FA00B002F0003003E600D0C9
:102A300003DC009004D2007005C800A006BE0000B0
:102A400008B400B009AA00D00BA000600E96006088
:102A5000118C000015820020197800C01D6E00A0A6
:102A6000226400B0275A00902C500000314600E04C
:102A7000343C0010383200903A2800603C1E00A020
:102A80003D1400803E0A00203F000050494E444162
:102A90002063616C6962726174696F6E206661693E
:102AA0006C65642E20436F6E74696E75652077695E
:102AB0007468207072657373696E6720746865202E
:102AC0006B6E6F622E0050494E44412063616C6909
:102AD00062726174696F6E20646F6E652E20436F41
:102AE0006E74696E7565207769746820707265739D
:102AF00073696E6720746865206B6E6F622E004785
:102B00003830004D3435004D3435205A00473736C3
:102B1000004D3730312050300057697A617264209F
:102B200073746174653A2025640A00457870657293
:102B3000696D656E74616C004673656E736F7220AB
:102B4000446574656374696F6E00302E38300030F0
:102B50002E363000302E343000302E3235004469AD
:102B60007361626C65206661726D206D6F646500D3
:102B70005265736574204D4D55004D4D55004D34D3
:102B800034004739390044697361626C65206661BD
:102B9000726D206D6F64653F0047323820585900D0
:102BA0004D20383400852E2E00593A202575202DD1
:102BB0003E202E2E2E00583A202575202D3E202E08
:102BC0002E2E0046696C616D656E742073656E73A0
:102BD0006F7220626F617264206368616E67652046
:102BE00064657465637465643A20726576697369B7
:102BF0006F6E25530A004D656173757265642066BA
:102C0000696C616D656E742073656E736F72206C94
:102C10006F77206C6576656C3A2025342E326656C7
:102C20000A004D656173757265642066696C616D3B
:102C3000656E742073656E736F72206869676820B3
:102C40006C6576656C3A2025342E3266560A00256E
:102C500033642F30002533642F3000000000C000A3
:102C600000000000003C430000000000003C439ACC
:102C7000992B43000000C09A992B432563204158AB
:102C80004953205347313D25640A00486F74656EEF
:102C90006400426564005A00590058002D2D2D2D06
:102CA0002D2D2D2D2D2D2D2D2D2D2D2D2D2D2D2D54
:102CB00000435A5058496E76616C69645365726975
:102CC000616C4E72004D393134004D393135006B35
:102CD0003125291D2915290829F62847312058258D
:102CE00064205925642045252D2E35660047312066
:102CF0004631303830004731205A252D2E3366209A
:102D00004637323030004731205835302059313580
:102D10003500F6296529F43256294A293F293629F2
:102D20004731205825642045252D2E336620463115
:102D300030303000E529D529C529B729F629A4293D
:102D40009729862978296929542564004731205A12
:102D5000302E3420463130303000473120592D3369
:102D6000204631303030006B31062A012AFD29F629
:102D7000294D3834205859004D31303920533238DC
:102D8000300047312058313235205A323030204619
:102D900031303030004D3331302041204631004752
:102DA0003120583132352059313035205A312046C2
:102DB0003830303000496E76616C69642050494487
:102DC0002063616C2E20726573756C74732E204EB7
:102DD0006F742073746F72656420746F2045455062
:102DE000524F4D2E004D3330312050252E3266206B
:102DF00049252E32662044252E3266004D3330336D
:102E00002045302053253375005243004445560079
:102E10004245544100414C504841000000210024EB
:102E20000027002A002D00300033000101000004BB
:102E30000107010A0100002200250028002B002EB6
:102E4000003100340002010000050108010B0100FF
:102E50000020002300260029002C002F0032000053
:102E60000100000301060109010505050507050824
:102E7000080808020202020A0A08080404040401FD
:102E8000010101010101010303030303030303041F
:102E90000707070C0C0C0C0C0C0C0C0202020206AF
:102EA000060606060606060B0B0B0B0B0B0B0B0799
:102EB000070A0A0A0A0A0A050505040404080801A3
:102EC000021020200808102040102040800201023B
:102ED0000108040201010204081020408080402003
:102EE000100804020180040201804020100804023E
:102EF00001080402010102040810204080010204BC
:102F000008102040801008040880102040044080F1
:102F1000102040048000000A0B02090C0D0E080767
:102F20000304010000000000000000000000000099
:102F30000000000000000000000000000000000091
:102F4000001211100000000000000000000000004E
:102F50000000000000000000000000000000000071
:102F60000000000000000000000000332E31342E6D
:102F700030000A204F726967696E616C205072756B
:102F800073612069330A20202050727573612052CA
:102F9000657365617263680A2532302E32305300E2
:102FA000435A5058003B530053706F6F6C4A6F691F
:102FB0006E20697320006164635F696E697400202C
:102FC0000A200A200A2000416C6C204461746100D0
:102FD0005365727669636520707265700053686925
:102FE0007070696E672070726570005374617469E7
:102FF0007374696373004C616E6775616765004542
:10300000524153494E4720616C6C206461746100E9
:10301000466163746F727920524553455400505293
:103020005553413344465700494E54340003000E73
:10303000000000400003000200000004004E4F4367
:1030400054554100414C5446414E005072757361D5
:10305000336400446563202036203230323420311E
:10306000363A32323A30350020332E31342E302D7C
:10307000383036365F3000737461727400534E20FE
:10308000757064617465206661696C656400534E97
:10309000207570646174656400435A50580043524F
:1030A0004153485F444554454354454458590043AF
:1030B000524153485F4445544543544544590043A5
:1030C000524153485F444554454354454458004D8C
:1030D000323900252D392E39535B004731205825D0
:1030E000642059252D2E32662045252D2E3366006D
:1030F000544D20657374696D6174696F6E206469E5
:1031000064206E6F7420636F6E766572676500541D
:103110004D20697465723A257520763A252E3266FF
:1031200020653A252E33660A0057726974696E6706
:1031300020746F2066696C653A200046696C6520D2
:10314000616C7265616479206F70656E65640033CF
:10315000332942000058419A998D4133335340201E
:103160000A200A20004D4D55323A004D31303700CB
:10317000202030002020310046494E444100504973
:103180004E44410057697A61726420656E64207311
:10319000746174653A2025640A0053706F6F6C4A3D
:1031A0006F696E004669726D7761726500484265AD
:1031B00064206F6E206C6F616400466C61736841BF
:1031C000697200546865726D616C204D6F64656C46
:1031D0002063616C2E004572723A5052494E542061
:1031E00046414E204552524F52004572723A484F66
:1031F00054454E442046414E204552524F52002FD6
:103200002F616374696F6E3A726573756D656400E2
:103210002F2F616374696F6E3A726573756D650007
:103220002F2F616374696F6E3A7265616479002F44
:103230002F616374696F6E3A6E6F745F726561645B
:1032400079002F2F616374696F6E3A63616E6365F5
:103250006C0041786973206C656E677468206469DE
:1032600066666572656E63653A252E33660A004DA3
:10327000656173757265642061786973206C656E31
:103280006774683A252E33660A004F4B004C43445E
:1032900020737461747573206368616E6765640080
:1032A000534420636172642072656C656173656468
:1032B0000046616B652073657269616C206E756D87
:1032C00062657200452D636F6F6C206D6F646500E1
:1032D000414C5446414E206465742E002F2F61638B
:1032E00074696F6E3A7374617274004D3834004DB6
:1032F000373032004D3833004732382057004D35D3
:1033000030300045787465726E616C2053504920EE
:10331000666C6173680A58464C41534820697320B3
:103320006E6F74207265732D0A706F6E64696E67BC
:103330002E204C616E67756167650A7377697463E7
:103340006820756E617661696C61626C652E0058EB
:10335000464C415348206E6F7420726573706F6ED7
:1033600064696E672E00465720637261736820643B
:10337000657465637465642120596F752063616E9F
:1033800020636F6E74696E7565207072696E746902
:103390006E672E20446562756720646174612061E8
:1033A0007661696C61626C6520666F7220616E6126
:1033B0006C797369732E20436F6E7461637420732C
:1033C0007570706F727420746F207375626D69749C
:1033D0002064657461696C732E002F2F61637469BA
:1033E0006F6E3A64756D705F617661696C61626C75
:1033F0006500437261736844657465637420444971
:103400005341424C4544004372617368446574659E
:10341000637420454E41424C45442100486F746519
:103420006E642066616E20747970653A20002020F9
:10343000506C616E6E657242756666657242797433
:1034400065733A20002046726565204D656D6F7288
:10345000793A2000207C20417574686F723A200010
:10346000204C61737420557064617465643A200067
:1034700020536F66747761726520526573657400BE
:10348000205761746368646F6720526573657400C8
:103490002042726F776E206F757420526573657469
:1034A000002045787465726E616C20526573657496
:1034B00000506F7765725570006572726F72207779
:1034C000726974696E6720746F2066696C65004468
:1034D0006F6E6520736176696E672066696C652E14
:1034E000006F6B0050494E44412063616C69627209
:1034F0006174696F6E206661696C65640050494E45
:1035000044412063616C6962726174696F6E206905
:10351000732066696E697368656420616E642061FA
:1035200063746976652E2049742063616E2062653C
:103530002064697361626C656420696E206D656EDC
:10354000752053657474696E67732D3E50494E44FF
:10355000412063616C2E0045787472756465720059
:103560004D6F7665205A004D6F76652059004D6F7E
:1035700076652058004372617368206465746563E2
:1035800074696F6E2063616E0A6265207475726E75
:103590006564206F6E206F6E6C7920696E0A4E6FC5
:1035A000726D616C206D6F6465005741524E494EDB
:1035B000473A0A437261736820646574656374698D
:1035C0006F6E0A64697361626C656420696E0A5388
:1035D0007465616C7468206D6F6465004D6F64651F
:1035E000206368616E676520696E2070726F677214
:1035F0006573732E2E2E00536865657420252E3753
:10360000730A5A206F66667365743A20252B312E33
:1036100033666D6D0A2563436F6E74696E75650A56
:103620002563526573657400506C65617365206C29
:103630006F61642066696C616D656E742066697285
:1036400073742E003E43616E63656C0052756E6E3E
:10365000696E672057697A6172642077696C6C20A3
:1036600064656C6574652063757272656E74206341
:10367000616C6962726174696F6E20726573756CDA
:10368000747320616E642073746172742066726F4B
:103690006D2074686520626567696E6E696E672E5D
:1036A00020436F6E74696E75653F00507265686582
:1036B0006174696E67206E6F7A7A6C652E20506C2B
:1036C0006561736520776169742E00506C65617364
:1036D0006520696E736572742066696C616D656ED4
:1036E0007420696E746F20746865206578747275D3
:1036F0006465722C207468656E2070726573732027
:10370000746865206B6E6F6220746F206C6F6164EB
:103710002069742E00506C6561736520696E736555
:1037200072742066696C616D656E7420696E746F69
:1037300020746865206669727374207475626520F0
:103740006F6620746865204D4D552C207468656E39
:1037500020707265737320746865206B6E6F6220D1
:10376000746F206C6F61642069742E00546865204A
:103770007072696E7465722077696C6C2073746105
:103780007274207072696E74696E672061207A6944
:10379000672D7A6167206C696E652E20526F7461A7
:1037A000746520746865206B6E6F6220756E746935
:1037B0006C20796F7520726561636820746865207C
:1037C0006F7074696D616C206865696768742E201C
:1037D000436865636B2074686520706963747572F3
:1037E000657320696E207468652068616E64626F1D
:1037F0006F6B202843616C6962726174696F6E201F
:1038000063686170746572292E0053656C6563741A
:103810002074656D70657261747572652077686972
:103820006368206D61746368657320796F757220B9
:103830006D6174657269616C2E0053656C656374AB
:1038400020612066696C616D656E7420666F722000
:10385000746865204669727374204C6179657220C2
:1038600043616C6962726174696F6E20616E64207D
:1038700073656C65637420697420696E2074686573
:10388000206F6E2D73637265656E206D656E752E8B
:10389000004E6F7720492077696C6C2063616C69FA
:1038A00062726174652064697374616E636520621D
:1038B00065747765656E20746970206F6620746822
:1038C00065206E6F7A7A6C6520616E642068656130
:1038D0007462656420737572666163652E00506C56
:1038E0006561736520636865636B206F757220681E
:1038F000616E64626F6F6B20616E64206669782010
:103900007468652070726F626C656D2E20546865F6
:103910006E20726573756D65207468652057697ACD
:10392000617264206279207265626F6F74696E677C
:1039300020746865207072696E7465722E00416C27
:103940006C20697320646F6E652E204861707079F9
:10395000207072696E74696E672100596F752063FB
:10396000616E20616C7761797320726573756D6526
:10397000207468652057697A6172642066726F6D81
:103980002043616C6962726174696F6E202D3E2004
:1039900057697A6172642E00496620796F752068D4
:1039A000617665206164646974696F6E616C20730F
:1039B0007465656C207368656574732C2063616C35
:1039C00069627261746520746865697220707265DD
:1039D0007365747320696E2053657474696E6773C0
:1039E000202D204857205365747570202D20537466
:1039F00065656C207368656574732E00506C656135
:103A0000736520636C65616E2068656174626564CE
:103A100020616E64207468656E2070726573732017
:103A2000746865206B6E6F622E00446F20796F752D
:103A30002077616E7420746F2072657065617420E8
:103A40006C617374207374657020746F207265618B
:103A5000646A7573742064697374616E636520624F
:103A600065747765656E206E6F7A7A6C6520616E1D
:103A70006420686561746265643F0053656C6563CA
:103A800074206E6F7A7A6C652070726568656174F7
:103A90002074656D706572617475726520776869F0
:103AA0006368206D61746368657320796F75722037
:103AB0006D6174657269616C2E0049732066696C72
:103AC000616D656E74206C6F616465643F0054685D
:103AD00065726D616C206D6F64656C2063616C2E26
:103AE0002074616B657320617070726F782E203165
:103AF00032206D696E732E205365650A707275737E
:103B0000612E696F2F746D2D63616C004E6F77208D
:103B1000492077696C6C2070726568656174206EED
:103B20006F7A7A6C6520666F7220504C412E004986
:103B30002077696C6C2072756E207A2063616C69E5
:103B400062726174696F6E206E6F772E00506C65C3
:103B500061736520706C61636520737465656C20AA
:103B60007368656574206F6E206865617462656452
:103B70002E00497320737465656C207368656574E5
:103B8000206F6E20686561746265643F004E6F77D8
:103B90002072656D6F766520746865207465737436
:103BA000207072696E742066726F6D207374656523
:103BB0006C2073686565742E00506C6561736520B8
:103BC00072656D6F7665207368697070696E6720C5
:103BD00068656C706572732066697273742E004636
:103BE000697273742C20492077696C6C2072756E31
:103BF000207468652073656C667465737420746FD7
:103C000020636865636B206D6F737420636F6D6DE7
:103C10006F6E20617373656D626C792070726F6274
:103C20006C656D732E0048692C204920616D2079E8
:103C30006F7572204F726967696E616C2050727582
:103C40007361206933207072696E7465722E20571B
:103C50006F756C6420796F75206C696B65206D657C
:103C600020746F20677569646520796F75207468AA
:103C7000726F75676820746865207365747570204D
:103C800070726F636573733F0048692C204920612F
:103C90006D20796F7572204F726967696E616C2053
:103CA0005072757361206933207072696E74657229
:103CB0002E20492077696C6C2067756964652079CE
:103CC0006F75207468726F75676820612073686F04
:103CD00072742073657475702070726F636573738E
:103CE0002C20696E20776869636820746865205AA3
:103CF0002D617869732077696C6C2062652063613F
:103D00006C696272617465642E205468656E2C2043
:103D1000796F752077696C6C2062652072656164CB
:103D20007920746F207072696E742E00452D636F58
:103D30007272656374005A2D636F727265637400EA
:103D4000592D636F727265637400582D636F7272C0
:103D500065637400506175736500436F6E742E0067
:103D6000465320416374696F6E00462E206175745E
:103D70006F6C6F616400462E2072756E6F757400F3
:103D80004D4D55204D6F6465004375747465720028
:103D900046616E207370656564004265640046612B
:103DA0006E7320636865636B004D6F64656C0053D0
:103DB0007472696374005761726E004E6F7A7A6C28
:103DC0006500436865636B73004E6F7A7A6C65209B
:103DD000642E004E6F6E6500416C706861626574A0
:103DE0000054696D6500536F727400534420636121
:103DF00072640052506920706F7274004C696E2EAC
:103E000020636F7272656374696F6E004E6F7A7AA9
:103E10006C65206368616E67650048572053657460
:103E20007570004C6F6164696E672054657374002F
:103E300044697361626C6520737465707065727338
:103E4000004D6F766520617869730054656D70650B
:103E50007261747572650050494E44412063616C13
:103E60002E0052657365742058595A2063616C693D
:103E700062722E005049442063616C696272617401
:103E8000696F6E00426564206C6576656C20636FB7
:103E90007272656374004D65736820426564204CDE
:103EA0006576656C696E670043616C696272617406
:103EB00065205A0043616C696272617465205859CB
:103EC0005A0053656C66746573740042656C7420A7
:103ED000746573740057697A617264004C6F616431
:103EE00020416C6C00506C656173652070756C6C62
:103EF000206F75742066696C616D656E7420696DE4
:103F00006D6564696174656C7900526573657400F0
:103F100052656E616D65004669727374206C6179DB
:103F200065722063616C2E0053656C656374005389
:103F30007465656C20736865657473005375707083
:103F40006F7274004661696C207374617473204DE4
:103F50004D55004661696C2073746174730053742D
:103F600061746973746963730043616C696272613F
:103F700074696F6E004C6F61642066696C616D6579
:103F80006E74004175746F4C6F61642066696C617A
:103F90006D656E7400556E6C6F61642066696C614E
:103FA0006D656E74004C6F616420746F206E6F7A63
:103FB0007A6C65005072656C6F616420746F204D7F
:103FC0004D55004E6F20534420636172640050725F
:103FD000696E742066726F6D20534400436C656196
:103FE0007220544D206572726F7200526573756D48
:103FF00065207072696E740050617573652070720F
:10400000696E74005365742052656164790053656C
:1040100074206E6F74205265616479005072656817
:104020006561740054756E65004C69766520616445
:104030006A757374205A0052657072696E74004913
:104040006E666F2073637265656E004272696768A1
:10405000746E657373004173736973740053696C94
:10406000656E74004F6E6365004C6F756400536F2E
:10407000756E640046696C2E2073656E736F7200F6
:104080004175746F20686F6D65004368616E676588
:104090002066696C616D656E7400466C6F770053C5
:1040A00070656564004E2F41004D61676E657473E5
:1040B00020636F6D702E005A2D70726F6265206ED6
:1040C000722E004D6573680044696D004272696725
:1040D0006874004175746F0054696D656F75740084
:1040E0004C6576656C2044696D6D6564004C657641
:1040F000656C204272696768740053657474696EF8
:10410000677300596573004E6F0053746F702070B1
:1041100072696E7400436865636B696E67206669D7
:104120006C650046696C6520696E636F6D706C65C7
:1041300074652E20436F6E74696E756520616E79AB
:104140007761793F008452656672657368004D61DE
:10415000696E00496E7365727420746865206669C3
:104160006C616D656E742028646F206E6F74206CB6
:104170006F61642069742920696E746F20746865AA
:1041800020657874727564657220616E642074684D
:10419000656E20707265737320746865206B6E6F36
:1041A000622E0053656E736F722076657269666960
:1041B00065642C2072656D6F766520746865206675
:1041C000696C616D656E74206E6F772E0056657236
:1041D000696669636174696F6E206661696C6564A4
:1041E0002C2072656D6F7665207468652066696C39
:1041F000616D656E7420616E6420747279206167F0
:1042000061696E2E00506C6561736520636865633B
:104210006B207468652049522073656E736F72203D
:10422000636F6E6E656374696F6E2C20756E6C6F54
:1042300061642066696C616D656E742069662070CA
:10424000726573656E742E00506C656173652075C0
:104250006E6C6F6164207468652066696C616D6561
:104260006E742066697273742C207468656E207297
:104270006570656174207468697320616374696F27
:104280006E2E0057616974696E6720666F72206ECA
:104290006F7A7A6C6520616E642062656420636F5A
:1042A0006F6C696E670053656C6674657374204F3C
:1042B0004B0053656C66746573742073746172741B
:1042C000005072696E742066616E3A00486F7465C2
:1042D0006E642066616E3A0043616C69627261745B
:1042E000696E6720686F6D6500416C6C20636F724A
:1042F0007265637400436865636B696E67207365FC
:104300006E736F727300436865636B696E672068D4
:104310006F74656E6400436865636B696E672062E5
:10432000656400436865636B696E67205A20617835
:10433000697300436865636B696E67205920617813
:10434000697300436865636B696E67205820617804
:10435000697300436865636B696E6720656E64739B
:10436000746F707300436172642072656D6F76655F
:1043700064004261636B00537465616C7468004350
:1043800072617368206465742E004E6F726D616C8B
:10439000004D6F646500486F74656E642061742021
:1043A0003238304321204E6F7A7A6C652063686121
:1043B0006E67656420616E64207469676874656EF9
:1043C000656420746F2073706563733F00466F727D
:1043D0002061204E6F7A7A6C65206368616E676534
:1043E00020706C6561736520726561640A70727516
:1043F00073612E696F2F6E6F7A7A6C652D6D6B33DA
:1044000073005049442063616C2E2066696E6973A5
:10441000686564005049442063616C2E00507269E5
:104420006E7420706175736564005072696E7420DB
:1044300061626F72746564004E6F7A7A6C65206495
:1044400069616D6574657220646966666572732062
:1044500066726F6D2074686520472D636F64652EEA
:1044600020506C6561736520636865636B207468B8
:10447000652076616C756520696E2073657474695A
:104480006E67732E205072696E742063616E63656F
:104490006C6C65642E004E6F7A7A6C65206469617D
:1044A0006D657465722064696666657273206672F4
:1044B0006F6D2074686520472D636F64652E2043FF
:1044C0006F6E74696E75653F004D4B33532066699E
:1044D000726D7761726520646574656374656420CC
:1044E0006F6E204D4B33207072696E74657200429E
:1044F0006C61636B6F7574206F6363757272656452
:104500002E205265636F766572207072696E743FFB
:1045100000546865726D616C206D6F64656C206E0F
:104520006F742063616C696272617465642079657F
:10453000742E0044697374616E63652062657477DC
:1045400065656E20746970206F6620746865206EE2
:104550006F7A7A6C6520616E64207468652062658C
:1045600064207375726661636520686173206E6F85
:1045700074206265656E20736574207965742E20E1
:10458000506C6561736520666F6C6C6F7720746822
:1045900065206D616E75616C2C2063686170746557
:1045A000722046697273742073746570732C207363
:1045B000656374696F6E204669727374206C6179EB
:1045C00065722063616C6962726174696F6E2E003E
:1045D0005072696E74657220686173206E6F74200A
:1045E0006265656E2063616C6962726174656420E6
:1045F0007965742E20506C6561736520666F6C6CF4
:104600006F7720746865206D616E75616C2C206316
:104610006861707465722046697273742073746582
:1046200070732C2073656374696F6E2043616C69CD
:1046300062726174696F6E20666C6F772E005365CD
:104640006C66746573742077696C6C206265207287
:10465000756E20746F2063616C696272617465208D
:1046600061636375726174652073656E736F726CDC
:10467000657373207265686F6D696E672E004F6C8D
:10468000642073657474696E677320666F756E64F9
:104690002E2044656661756C74205049442C204579
:1046A0007374657073206574632E2077696C6C2059
:1046B0006265207365742E005761726E696E673A89
:1046C00020626F7468207072696E746572207479EC
:1046D000706520616E64206D6F74686572626F61D1
:1046E00072642074797065206368616E6765642EFA
:1046F000005761726E696E673A207072696E7465F8
:10470000722074797065206368616E6765642E003D
:104710005761726E696E673A206D6F746865726278
:104720006F6172642074797065206368616E67657B
:10473000642E0054657374696E672066696C616DE0
:10474000656E74005368656574004E6F74207370F5
:10475000696E6E696E67005370696E6E696E670090
:1047600046616E20746573740053656C667465737E
:1047700074206661696C6564002573206C657665DC
:104780006C2065787065637465640046616C736560
:104790002074726967676572696E670046696C614B
:1047A0006D656E742073656E736F72005377617000
:1047B0007065640046726F6E742F6C656674206657
:1047C000616E7300417869730041786973206C658C
:1047D0006E677468004C6F6F73652070756C6C65E4
:1047E00079004C65667420686F74656E642066613C
:1047F0006E3F0046726F6E74207072696E74206630
:10480000616E3F00456E6473746F70206E6F74202C
:1048100068697400456E6473746F70004D6F746FD7
:104820007200456E6473746F707300576972696EBD
:1048300067206572726F72004265642F486561740B
:104840006572004E6F7420636F6E6E65637465648D
:10485000004865617465722F546865726D69737480
:104860006F7200506C6561736520636865636B3AB5
:104870000053656C6674657374206572726F722183
:104880000046696C616D656E740053656C65637498
:104890002066696C616D656E743A00556E6578705E
:1048A0006563746564206572726F72206F636375EF
:1048B000727265642E004D3630302046696C616D31
:1048C000656E74204368616E67652E204C6F61646D
:1048D0002061206E65772066696C616D656E74205D
:1048E0006F7220656A65637420746865206F6C64FC
:1048F000206F6E652E0052656D6F76652074686559
:1049000020656A65637465642066696C616D656EB7
:10491000742066726F6D207468652066726F6E74A5
:10492000206F6620746865204D4D552E0046696CD9
:10493000616D656E7420646574656374656420756B
:104940006E65787065637465646C792E20456E734E
:10495000757265206E6F2066696C616D656E74207E
:104960006973206C6F616465642E20436865636BB6
:10497000207468652073656E736F727320616E6456
:1049800020776972696E672E00496E7465726E6178
:104990006C2072756E74696D65206572726F722E0F
:1049A0002054727920726573657474696E6720741F
:1049B0006865204D4D55206F722075706461746973
:1049C0006E6720746865206669726D776172652E06
:1049D000004D4D552046572076657273696F6E20E5
:1049E000697320696E636F6D70617469626C6520B4
:1049F00077697468207072696E7465722046572EEC
:104A000055706461746520746F2076657273696F88
:104A10006E20332E302E322E004D4D5520466972B9
:104A20006D7761726520696E7465726E616C206568
:104A300072726F722C20706C656173652072657381
:104A4000657420746865204D4D552E005265717552
:104A500065737465642066696C616D656E7420743D
:104A60006F6F6C206973206E6F7420617661696C62
:104A700061626C65206F6E20746869732068617272
:104A800064776172652E20436865636B2074686586
:104A900020472D636F646520666F7220746F6F6CA2
:104AA00020696E646578206F7574206F662072616E
:104AB0006E6765202854302D5434292E0043616ED2
:104AC0006E6F7420706572666F726D2074686520F9
:104AD000616374696F6E2C2066696C616D656E74BC
:104AE00020697320616C7265616479206C6F616408
:104AF00065642E20556E6C6F616420697420666950
:104B00007273742E004D4D55206E6F742072657354
:104B1000706F6E64696E6720636F72726563746C28
:104B2000792E20436865636B20746865207769720D
:104B3000696E6720616E6420636F6E6E6563746F6B
:104B400072732E004D4D55206E6F74207265737018
:104B50006F6E64696E672E20436865636B207468AE
:104B60006520776972696E6720616E6420636F6E7D
:104B70006E6563746F72732E004D6F72652064658D
:104B80007461696C73206F6E6C696E652E00546879
:104B9000652049646C65722063616E6E6F74206875
:104BA0006F6D652070726F7065726C792E2043682E
:104BB00065636B20666F7220616E797468696E67D9
:104BC00020626C6F636B696E6720697473206D6F10
:104BD00076656D656E742E0043616E2774206D6F6F
:104BE00076652053656C6563746F72206F7220491F
:104BF000646C65722E005468652053656C6563743F
:104C00006F722063616E6E6F7420686F6D652070C7
:104C1000726F7065726C792E20436865636B2066D5
:104C20006F7220616E797468696E6720626C6F6361
:104C30006B696E6720697473206D6F76656D656E44
:104C4000742E004C6F6164696E6720746F20657804
:104C5000747275646572206661696C65642E2049A2
:104C60006E7370656374207468652066696C616D2D
:104C7000656E74207469702073686170652E2052AF
:104C80006566696E65207468652073656E736F7202
:104C90002063616C6962726174696F6E2C20696651
:104CA000206E65656465642E0053656C6563746F82
:104CB000722063616E2774206D6F76652064756560
:104CC00020746F2046494E444120646574656374C6
:104CD000696E6720612066696C616D656E742E2057
:104CE0004D616B652073757265206E6F2066696C0F
:104CF000616D656E7420697320696E2053656C6503
:104D000063746F7220616E642046494E444120777F
:104D10006F726B732070726F7065726C792E0046C3
:104D2000696C616D656E742073656E736F7220744B
:104D3000726967676572656420746F6F2065617260
:104D40006C79207768696C65206C6F6164696E6747
:104D500020746F2065787472756465722E204368C4
:104D600065636B2074686572652069736E277420B3
:104D7000616E797468696E6720737475636B2069FE
:104D80006E205054464520747562652E2043686538
:104D9000636B20746861742073656E736F72207228
:104DA000656164732070726F7065726C792E00504B
:104DB000756C6C6579206D6F746F72207374616CA3
:104DC0006C65642E20456E7375726520746865206D
:104DD00070756C6C65792063616E206D6F766520EF
:104DE000616E6420636865636B2074686520776911
:104DF00072696E672E0046696C616D656E74207312
:104E0000656E736F72206469646E277420737769AE
:104E1000746368206F6666207768696C6520756EBC
:104E20006C6F6164696E672066696C616D656E7434
:104E30002E20456E737572652066696C616D656EB6
:104E4000742063616E206D6F766520616E642074DE
:104E500068652073656E736F7220776F726B732E47
:104E60000046696C616D656E742073656E736F7258
:104E7000206469646E2774207472696767657220A4
:104E80007768696C65206C6F6164696E672074680F
:104E9000652066696C616D656E742E20456E737554
:104EA0007265207468652073656E736F7220697314
:104EB0002063616C6962726174656420616E642054
:104EC0007468652066696C616D656E7420726561D9
:104ED000636865642069742E0046494E444120642D
:104EE00069646E277420737769746368206F6666DF
:104EF000207768696C6520756E6C6F6164696E6798
:104F00002066696C616D656E742E2054727920750F
:104F10006E6C6F6164696E67206D616E75616C6C3B
:104F2000792E20456E737572652066696C616D65BA
:104F30006E742063616E206D6F766520616E6420F3
:104F400046494E444120776F726B732E0046494E9E
:104F50004441206469646E277420747269676765D0
:104F600072207768696C65206C6F6164696E672078
:104F70007468652066696C616D656E742E20456E7F
:104F800073757265207468652066696C616D656E05
:104F9000742063616E206D6F766520616E642046BB
:104FA000494E444120776F726B732E0044697361E0
:104FB000626C650053746F7000456A656374004CE1
:104FC0006F616400556E6C6F616400526573657447
:104FD0004D4D550052657472790053656E73697456
:104FE000697669747900446F6E65005265636F7607
:104FF0006572696E67207072696E7400544845521C
:105000004D414C20414E4F4D414C590052657375F6
:105010006D696E67207072696E740050494E44412C
:105020002048656174696E670043616C69627261F2
:1050300074696F6E20646F6E650043616C696272A3
:105040006174696E67205A0042656420646F6E6502
:10505000004265642048656174696E670048656157
:1050600074696E6720646F6E652E004865617469AF
:105070006E67004D4D5520706F77657220666169CF
:105080006C73004D4D55206C6F6164206661696CD6
:1050900073004D4D55206661696C73004D617465F8
:1050A0007269616C206368616E67657300546F7428
:1050B000616C206661696C7572657300437261731F
:1050C000680046696C2E2072756E6F75747300509F
:1050D0006F776572206661696C75726573004C61EB
:1050E0007374207072696E74206661696C75726584
:1050F0007300546F74616C004C617374207072693A
:105100006E7400416D6269656E7400566F6C7461F7
:105110006765730054656D7065726174757265734F
:105120000042656C74207374617475730053656E0E
:10513000736F7220696E666F00457874727564656E
:105140007220696E666F0058595A2063616C2E2078
:1051500064657461696C73005072696E7465722065
:10516000495020416464723A00756E6B6E6F776EC1
:10517000004D4D5520636F6E6E6563746564004429
:105180006174653A00746F20756E6C6F616420669F
:10519000696C616D656E7400746F206C6F61642062
:1051A00066696C616D656E7400507265737320740E
:1051B0006865206B6E6F6200507265686561746926
:1051C0006E6720746F206375740050726568656146
:1051D00074696E6720746F20656A6563740050722D
:1051E0006568656174696E6720746F20756E6C6F99
:1051F00061640050726568656174696E6720746FE0
:10520000206C6F616400436F6F6C646F776E004653
:10521000696C616D656E7420657874727564696E11
:10522000672026207769746820636F7272656374E3
:1052300020636F6C6F723F004175746F6C6F6164B7
:10524000696E672066696C616D656E742069732094
:105250006163746976652C206A7573742070726559
:10526000737320746865206B6E6F6220616E6420BA
:10527000696E736572742066696C616D656E742EFB
:105280002E2E005072696E742074696D6500466937
:105290006C616D656E74207573656400546F746124
:1052A0006C207072696E742074696D6500546F743F
:1052B000616C2066696C616D656E74005072656822
:1052C00065617420746865206E6F7A7A6C65210060
:1052D0004552524F523A005269676874004C6566F5
:1052E0007400592064697374616E63652066726F1F
:1052F0006D206D696E0053657665726520736B6510
:105300007700536C6967687420736B6577004D652F
:1053100061737572656420736B6577005B303B3039
:105320005D20706F696E74206F66667365740041EE
:10533000646A757374696E67205A005265617220E1
:1053400073696465205BE46D5D0046726F6E742066
:10535000736964655BE46D5D00526967687420730E
:105360006964655BE46D5D004C6566742073696417
:1053700065205BE46D5D005365742074656D706538
:105380007261747572653A004D494E54454D502016
:10539000424544206669786564004D494E54454D48
:1053A0005020484F54454E44206669786564004D4E
:1053B0004D55323A002533640018010419020A4D94
:1053C0004FD94E614EF64DAF4D1F4DA94C434CF693
:1053D0004BD84B8E4BD84B794B794B794B794B79DA
:1053E0004B794B794B794B794B794B794B794B799D
:1053F0004B794B794B794B794B794B794B794B798D
:105400004B794B444B054BBD4A4C4A194AD149890B
:10541000492D49F648B6489B4801010101010101A7
:1054200002710171013232320303030303030303E8
:1054300003030303030303030303039393243803C6
:105440009303010256036500660067006800690067
:105450006A006B006C00730074007D007E00C90060
:10546000D300DD00CA00D400DE002D013701410168
:105470002E01380142012F013901430130013A0167
:10548000440131013B014501320191019201F501D5
:10549000F601F701F801F901FA01FB01FC018403AF
:1054A000D44FE64FCB4FC44FBF4FB94F2440B44FFA
:1054B000AC4F252E3230530A70727573612E696FAE
:1054C0002F30342568750020557067726164696EED
:1054D000672078666C6173680A20446F206E6F7471
:1054E00020646973636F6E6E656374210077323573
:1054F000783230636C5F63666D0A007732357832DC
:1055000030636C5F656E7465720A007374617274E7
:105510000A007265636F7665725F6D616368696EBC
:10552000655F73746174655F61667465725F706FE7
:105530007765725F70616E69632C20696E6974694A
:10554000616C200050525553412075766C6F0047B6
:1055500034205330004D313130204E256C75004DD4
:1055600032362053256C75004D3130362053257569
:1055700000473120462564004D383200473932203B
:1055800045252D2E3366004D3230342050252D2EEA
:1055900031662052252D2E31662054252D2E316660
:1055A000004731205A252D2E336600505255534165
:1055B000204D424C2056310047312058252D2E33A6
:1055C000662059252D2E3366204633303030002C8E
:1055D00020666565646D756C7469706C793A004617
:1055E000656564726174653A00473120453520462F
:1055F000313230004D31303920532564004D313483
:105600003020532564004D31303420532564004749
:10561000323820582059004731205A252E33662031
:10562000463830300024F4D43050C38E20C2A2401B
:1056300017828B7011127A910D816CD90AA861E1E1
:1056400008C7586607615143061E4B5D05C145A753
:10565000041A411104093D9803713931034036DBC6
:105660000265339102D4305402802E1D02632CEE69
:1056700001752AC501B028A001102781018F25647A
:10568000012B244B01E0223401AC211F018D200DA0
:1056900001801FFC00841EED00971DDF00B81CD2A6
:1056A00000E61BC600201BBC00641AB200B219A899
:1056B000000A19A0006A189900D117910040178BB1
:1056C00000B516840031167E00B31579003A1573C3
:1056D00000C7146F0058146A00EE13660088136345
:1056E0000025135E00C7125B006C125700151254A0
:1056F00000C111510070114F0021114B00D610490B
:10570000008D1047004610440002104200C00F40B8
:1057100000800F3E00420F3C00060F3B00CB0E38CE
:1057200000930E37005C0E3500270E3400F30D3267
:1057300000C10D3100900D3000600D2E00320D2D96
:1057400000050D2C00D90C2B00AE0C2900850C296E
:10575000005C0C2700350C27000E0C2600E80B24FB
:1057600000C40B2400A00B23007D0B23005A0B2147
:1057700000390B2100180B2000F80A1F00D90A1E5F
:1057800000BB0A1E009D0A1D00800A1D00630A1C42
:1057900000470A1B002C0A1B00110A1A00F7091AFD
:1057A00000DD091900C4091900AB09190092091795
:1057B000007B091800630917004C0916003609160A
:1057C00000200916000A091500F5081500E0081464
:1057D00000CC081400B8081400A4081400900813A2
:1057E000007D0812006B08130058081200460812CA
:1057F00000340811002308110012081100010811DB
:1058000000F0071000E0071000D0071000C00710DC
:1058100000B0070F00A107100091070E0083070FCB
:105820000074070F0065070E0057070E0049070EAA
:10583000003B070D002E070E0020070D0013070D7B
:105840000006070D00F9060C00ED060D00E0060C41
:1058500000D4060C00C8060C00BC060C00B0060CF8
:1058600000A4060B0099060C008D060B0082060BA7
:105870000077060B006C060B0061060A0057060B4A
:10588000004C060A0042060A0038060A002E060AE4
:105890000024060A001A060A001006090007060A74
:1058A00000FD050900F4050900EB050900E2050902
:1058B00000D9050900D0050900C7050900BE050982
:1058C00000B5050800AD050800A50509009C050800
:1058D00000940508008C050800840508007C050874
:1058E00000740508006C050700650508005D0507E4
:1058F00000560508004E050700470507004005084B
:105900000038050700310507002A050700230507B1
:10591000001C050600160507000F05070008050610
:105920000002050700FB040600F5040700EE04066C
:1059300000E8040600E2040700DB040600D50406C4
:1059400000CF040600C9040600C3040600BD040617
:1059500000B7040600B1040500AC040600A6040666
:1059600000A00405009B04060095040500900406B1
:10597000008A04050085040500800406007A0405F9
:105980000075040500700405006B0405006604053D
:1059900000610405005C040500570405005204057D
:1059A000004D04050048040500430405003E0404BE
:1059B000003A04050035040500300404002C0405F9
:1059C0000027040400230405001E0404001A040434
:1059D0000016040500110404000D04040009040568
:1059E000000404040000040400FC030400F80304A1
:1059F00000F4030400F0030400EC030400E80304D3
:105A000000E4030400E0030400DC030400D8030402
:105A100000D4030400D0030400CC030400C8030333
:105A200000C503030024F404D9201BC40C5C0E98A9
:105A300004C4095F0265077101F405F900FB04B3B2
:105A40000048048700C1036900580355000303455B
:105A500000BE023A008402310053022A00290225C6
:105A60000004022000E4011C00C8011900AF011766
:105A700000980114008401130071011000610110ED
:105A80000051010E0043010D0036010B002B010BEC
:105A90000020010B00150109000C01090003010899
:105AA00000FB000800F3000800EB000700E400061C
:105AB00000DE000600D8000600D2000600CC00057B
:105AC00000C7000500C2000500BD000400B90004C5
:105AD00000B5000400B1000400AD000400A90004FA
